:020000020000FC
:100000004FEF4DBF41E24EBF40EF40930A014FEF2B
:1000100047B948B94FEF40BB41B9442741BB42B94A
:100020008F937F9388E97AE381507040E9F77F915D
:100030008F9158E351BB8F937F9388EE73E081508B
:100040007040E9F77F918F91169A8F937F9388EE96
:1000500073E081507040E9F77F918F9116988F93EC
:100060007F9388EE73E081507040E9F77F918F9124
:100070008F937F9384E070E181507040E9F77F9126
:100080008F9158E351BB8F937F9388EE73E081503B
:100090007040E9F77F918F91169A8F937F9388EE46
:1000A00073E081507040E9F77F918F9116988F939C
:1000B0007F9388EE73E081507040E9F77F918F91D4
:1000C0008F937F9384E670E081507040E9F77F91D1
:1000D0008F9158E351BB8F937F9388EE73E08150EB
:1000E0007040E9F77F918F91169A8F937F9388EEF6
:1000F00073E081507040E9F77F918F9116988F934C
:100100007F9388EE73E081507040E9F77F918F9183
:1001100058E351BB8F937F9388EE73E0815070401A
:10012000E9F77F918F91169A8F937F9388EE73E012
:1001300081507040E9F77F918F9116988F937F934C
:1001400088EE73E081507040E9F77F918F914F9373
:10015000442740BB41BB159A8F937F9388EE73E091
:1001600081507040E9F77F918F91169A8F937F931A
:1001700088EE73E081507040E9F77F918F914FB125
:10018000169847FDE9CF15984FEF40BB4F9158E0C7
:1001900051BB8F937F9388EE73E081507040E9F7F5
:1001A0007F918F91169A8F937F9388EE73E08150A1
:1001B0007040E9F77F918F9116988F937F9388EE27
:1001C00073E081507040E9F77F918F914F934427FE
:1001D00040BB41BB159A8F937F9388EE73E08150AB
:1001E0007040E9F77F918F91169A8F937F9388EEF5
:1001F00073E081507040E9F77F918F914FB116986D
:1002000047FDE9CF15984FEF40BB4F9151E051BBEF
:100210008F937F9388EE73E081507040E9F77F9170
:100220008F91169A8F937F9388EE73E08150704080
:10023000E9F77F918F9116988F937F9388EE73E003
:1002400081507040E9F77F918F914F93442740BBD5
:1002500041BB159A8F937F9388EE73E08150704075
:10026000E9F77F918F91169A8F937F9388EE73E0D1
:1002700081507040E9F77F918F914FB1169847FDFB
:10028000E9CF15984FEF40BB4F9156E051BB8F938C
:100290007F9388EE73E081507040E9F77F918F91F2
:1002A000169A8F937F9388EE73E081507040E9F740
:1002B0007F918F9116988F937F9388EE73E0815092
:1002C0007040E9F77F918F914F93442740BB41BB2A
:1002D000159A8F937F9388EE73E081507040E9F711
:1002E0007F918F91169A8F937F9388EE73E0815060
:1002F0007040E9F77F918F914FB1169847FDE9CF94
:1003000015984FEF40BB4F915EE051BB8F937F93A9
:1003100088EE73E081507040E9F77F918F91169AD3
:100320008F937F9388EE73E081507040E9F77F915F
:100330008F9116988F937F9388EE73E08150704071
:10034000E9F77F918F91992740E04F93442F405DCB
:100350005F93542F51BB179A8F937F9388EE73E06E
:1003600081507040E9F77F918F91169A8F937F9318
:1003700088EE73E081507040E9F77F918F91169875
:100380008F937F9388EE73E081507040E9F77F91FF
:100390008F9117984F93442740BB41BB159A8F9379
:1003A0007F9388EE73E081507040E9F77F918F91E1
:1003B000169A8F937F9388EE73E081507040E9F72F
:1003C0007F918F914FB1169847FDE9CF15984FEF68
:1003D00040BB4F915F9144274F914F93442F405D15
:1003E0005F93542F51BB179A8F937F9388EE73E0DE
:1003F00081507040E9F77F918F91169A8F937F9388
:1004000088EE73E081507040E9F77F918F911698E4
:100410008F937F9388EE73E081507040E9F77F916E
:100420008F9117984F93442740BB41BB159A8F93E8
:100430007F9388EE73E081507040E9F77F918F9150
:10044000169A8F937F9388EE73E081507040E9F79E
:100450007F918F914FB1169847FDE9CF15984FEFD7
:1004600040BB4F915F9144274F914AE35F93542FD4
:1004700051BB179A8F937F9388EE73E08150704041
:10048000E9F77F918F91169A8F937F9388EE73E0AF
:1004900081507040E9F77F918F9116988F937F93E9
:1004A00088EE73E081507040E9F77F918F91179843
:1004B0004F93442740BB41BB159A8F937F9388EE9F
:1004C00073E081507040E9F77F918F91169A8F9376
:1004D0007F9388EE73E081507040E9F77F918F91B0
:1004E0004FB1169847FDE9CF15984FEF40BB4F919C
:1004F0005F9140E04F93442F405D5F93542F51BB79
:10050000179A8F937F9388EE73E081507040E9F7DC
:100510007F918F91169A8F937F9388EE73E081502D
:100520007040E9F77F918F9116988F937F9388EEB3
:1005300073E081507040E9F77F918F9117984F9346
:10054000442740BB41BB159A8F937F9388EE73E09D
:1005500081507040E9F77F918F91169A8F937F9326
:1005600088EE73E081507040E9F77F918F914FB131
:10057000169847FDE9CF15984FEF40BB4F915F911B
:1005800044274F914F93442F405D5F93542F51BBAD
:10059000179A8F937F9388EE73E081507040E9F74C
:1005A0007F918F91169A8F937F9388EE73E081509D
:1005B0007040E9F77F918F9116988F937F9388EE23
:1005C00073E081507040E9F77F918F9117984F93B6
:1005D000442740BB41BB159A8F937F9388EE73E00D
:1005E00081507040E9F77F918F91169A8F937F9396
:1005F00088EE73E081507040E9F77F918F914FB1A1
:10060000169847FDE9CF15984FEF40BB4F915F918A
:1006100044274F9150EC51BB8F937F9388EE73E04A
:1006200081507040E9F77F918F91169A8F937F9355
:1006300088EE73E081507040E9F77F918F911698B2
:100640008F937F9388EE73E081507040E9F77F913C
:100650008F9145E45F93542F51BB179A8F937F93EB
:1006600088EE73E081507040E9F77F918F91169A80
:100670008F937F9388EE73E081507040E9F77F910C
:100680008F9116988F937F9388EE73E0815070401E
:10069000E9F77F918F9117984F93442740BB41BB57
:1006A000159A8F937F9388EE73E081507040E9F73D
:1006B0007F918F91169A8F937F9388EE73E081508C
:1006C0007040E9F77F918F914FB1169847FDE9CFC0
:1006D00015984FEF40BB4F915F9141E04F93442FEE
:1006E000405D5F93542F51BB179A8F937F9388EE91
:1006F00073E081507040E9F77F918F91169A8F9344
:100700007F9388EE73E081507040E9F77F918F917D
:1007100016988F937F9388EE73E081507040E9F7CD
:100720007F918F9117984F93442740BB41BB159AF7
:100730008F937F9388EE73E081507040E9F77F914B
:100740008F91169A8F937F9388EE73E0815070405B
:10075000E9F77F918F914FB1169847FDE9CF159832
:100760004FEF40BB4F915F9144274F9140E04F9333
:10077000442F405D5F93542F51BB179A8F937F9303
:1007800088EE73E081507040E9F77F918F91169A5F
:100790008F937F9388EE73E081507040E9F77F91EB
:1007A0008F9116988F937F9388EE73E081507040FD
:1007B000E9F77F918F9117984F93442740BB41BB36
:1007C000159A8F937F9388EE73E081507040E9F71C
:1007D0007F918F91169A8F937F9388EE73E081506B
:1007E0007040E9F77F918F914FB1169847FDE9CF9F
:1007F00015984FEF40BB4F915F9144274F913FEECB
:1008000011271430E1F330930B014FEF4A95F1F7C4
:10081000409109014F704F3059F021E0002704301A
:1008200039F0542F522349F00395220F0C940F04F2
:10083000330F339513950C940104133091F003306A
:1008400091F0402F943600F5440F400F410F4F5F59
:100850005AE0959F902D940F5527442700240C941F
:1008600044040C944404103031F0113051F00C94D5
:100870003E040C94FF034AE20C94440443E20C94BB
:10088000440440E30C94440451E051BB8F937F93A4
:1008900088EE73E081507040E9F77F918F91169A4E
:1008A0008F937F9388EE73E081507040E9F77F91DA
:1008B0008F9116988F937F9388EE73E081507040EC
:1008C000E9F77F918F914F93442740BB41BB159A25
:1008D0008F937F9388EE73E081507040E9F77F91AA
:1008E0008F91169A8F937F9388EE73E081507040BA
:1008F000E9F77F918F914FB1169847FDE9CF159891
:100900004FEF40BB4F914F935F939F93492F5527D4
:100910009927F9D09F915F914F9150EC51BB8F93E4
:100920007F9388EE73E081507040E9F77F918F915B
:10093000169A8F937F9388EE73E081507040E9F7A9
:100940007F918F9116988F937F9388EE73E08150FB
:100950007040E9F77F918F9145E45F93542F51BB2D
:10096000179A8F937F9388EE73E081507040E9F778
:100970007F918F91169A8F937F9388EE73E08150C9
:100980007040E9F77F918F9116988F937F9388EE4F
:1009900073E081507040E9F77F918F9117984F93E2
:1009A000442740BB41BB159A8F937F9388EE73E039
:1009B00081507040E9F77F918F91169A8F937F93C2
:1009C00088EE73E081507040E9F77F918F914FB1CD
:1009D000169847FDE9CF15984FEF40BB4F915F91B7
:1009E00041E04F93442F405D5F93542F51BB179AC2
:1009F0008F937F9388EE73E081507040E9F77F9189
:100A00008F91169A8F937F9388EE73E08150704098
:100A1000E9F77F918F9116988F937F9388EE73E01B
:100A200081507040E9F77F918F9117984F93442739
:100A300040BB41BB159A8F937F9388EE73E0815042
:100A40007040E9F77F918F91169A8F937F9388EE8C
:100A500073E081507040E9F77F918F914FB1169804
:100A600047FDE9CF15984FEF40BB4F915F91442769
:100A70004F9140E04F93442F405D5F93542F51BB03
:100A8000179A8F937F9388EE73E081507040E9F757
:100A90007F918F91169A8F937F9388EE73E08150A8
:100AA0007040E9F77F918F9116988F937F9388EE2E
:100AB00073E081507040E9F77F918F9117984F93C1
:100AC000442740BB41BB159A8F937F9388EE73E018
:100AD00081507040E9F77F918F91169A8F937F93A1
:100AE00088EE73E081507040E9F77F918F914FB1AC
:100AF000169847FDE9CF15984FEF40BB4F915F9196
:100B000044274F917CCE443648F45F9355274A30B2
:100B100040F45F9355274F930C9494054456539596
:100B2000F2CF4A505395F3CF222733274427552736
:100B300099275F914F919F91903009F448C04F934E
:100B4000492F405D5F93542F51BB179A8F937F932A
:100B500088EE73E081507040E9F77F918F91169A8B
:100B60008F937F9388EE73E081507040E9F77F9117
:100B70008F9116988F937F9388EE73E08150704029
:100B8000E9F77F918F9117984F93442740BB41BB62
:100B9000159A8F937F9388EE73E081507040E9F748
:100BA0007F918F91169A8F937F9388EE73E0815097
:100BB0007040E9F77F918F914FB1169847FDE9CFCB
:100BC00015984FEF40BB4F915F9144274F91940F81
:100BD000903009F448C04F93442F405D5F93542FE9
:100BE00051BB179A8F937F9388EE73E081507040CA
:100BF000E9F77F918F91169A8F937F9388EE73E038
:100C000081507040E9F77F918F9116988F937F9371
:100C100088EE73E081507040E9F77F918F911798CB
:100C20004F93442740BB41BB159A8F937F9388EE27
:100C300073E081507040E9F77F918F91169A8F93FE
:100C40007F9388EE73E081507040E9F77F918F9138
:100C50004FB1169847FDE9CF15984FEF40BB4F9124
:100C60005F9144274F914F93452F405D5F93542FE1
:100C700051BB179A8F937F9388EE73E08150704039
:100C8000E9F77F918F91169A8F937F9388EE73E0A7
:100C900081507040E9F77F918F9116988F937F93E1
:100CA00088EE73E081507040E9F77F918F9117983B
:100CB0004F93442740BB41BB159A8F937F9388EE97
:100CC00073E081507040E9F77F918F91169A8F936E
:100CD0007F9388EE73E081507040E9F77F918F91A8
:100CE0004FB1169847FDE9CF15984FEF40BB4F9194
:100CF0005F9144274F91222733274427552799276F
:020D0000089554
:00000001FF
