:020000020000FC
:040000000C94330029
:10005C000C9445000C94320018954FEF4DBF41E2C3
:10006C004EBF4FEF44B9442745B940E044BD42E090
:10007C0045BD41E040936E00789422272CC04FB7C9
:10008C004F93DF93CF939F938F9380910002909126
:10009C000102019605B984384EE1940769F4C0E079
:1000AC00D2E0442749934883203019F010E020E037
:1000BC000BC01FEF21E008C018B980930002909389
:1000CC000102213009F415B98F919F91CF91DF91E5
:1000DC004F914FBF189500E010E020E04427C0E09E
:0A00EC00D2E0442749934883FFCF78
:00000001FF
